{
  "_format": "hh-sol-artifact-1",
  "contractName": "CCStakingEthClient",
  "sourceName": "contracts/CCStakingEthClient.sol",
  "abi": [
    {
      "inputs": [
        {
          "internalType": "address",
          "name": "_lidoContract",
          "type": "address"
        }
      ],
      "stateMutability": "nonpayable",
      "type": "constructor"
    },
    {
      "inputs": [],
      "name": "checkStEthBalance",
      "outputs": [
        {
          "internalType": "uint256",
          "name": "",
          "type": "uint256"
        }
      ],
      "stateMutability": "view",
      "type": "function"
    },
    {
      "inputs": [],
      "name": "stake",
      "outputs": [
        {
          "internalType": "uint256",
          "name": "",
          "type": "uint256"
        }
      ],
      "stateMutability": "payable",
      "type": "function"
    }
  ],
  "bytecode": "0x608060405234801561001057600080fd5b5060405161091a38038061091a8339818101604052810190610032919061013c565b806000806101000a81548173ffffffffffffffffffffffffffffffffffffffff021916908373ffffffffffffffffffffffffffffffffffffffff16021790555060008054906101000a900473ffffffffffffffffffffffffffffffffffffffff16600160006101000a81548173ffffffffffffffffffffffffffffffffffffffff021916908373ffffffffffffffffffffffffffffffffffffffff16021790555050610169565b600080fd5b600073ffffffffffffffffffffffffffffffffffffffff82169050919050565b6000610109826100de565b9050919050565b610119816100fe565b811461012457600080fd5b50565b60008151905061013681610110565b92915050565b600060208284031215610152576101516100d9565b5b600061016084828501610127565b91505092915050565b6107a2806101786000396000f3fe6080604052600436106100295760003560e01c80633a4b66f11461002e578063566b436b1461004c575b600080fd5b610036610077565b6040516100439190610567565b60405180910390f35b34801561005857600080fd5b5061006161025b565b60405161006e9190610567565b60405180910390f35b60006100b76040518060400160405280601681526020017f7374616b652066756e6374696f6e2063616c6c65642e00000000000000000000815250610351565b6000600160009054906101000a900473ffffffffffffffffffffffffffffffffffffffff1673ffffffffffffffffffffffffffffffffffffffff1663a1903eab3460006040518363ffffffff1660e01b815260040161011691906105c3565b6020604051808303818588803b15801561012f57600080fd5b505af1158015610143573d6000803e3d6000fd5b50505050506040513d601f19601f82011682018060405250810190610168919061060f565b90506101df6040518060400160405280600781526020017f5374616b65642000000000000000000000000000000000000000000000000000815250346040518060400160405280600481526020017f20455448000000000000000000000000000000000000000000000000000000008152506103ea565b6102546040518060400160405280600981526020017f5265636569766564200000000000000000000000000000000000000000000000815250826040518060400160405280600681526020017f20737445544800000000000000000000000000000000000000000000000000008152506103ea565b8091505090565b600080600160009054906101000a900473ffffffffffffffffffffffffffffffffffffffff1673ffffffffffffffffffffffffffffffffffffffff166370a08231306040518263ffffffff1660e01b81526004016102b991906105c3565b60206040518083038186803b1580156102d157600080fd5b505afa1580156102e5573d6000803e3d6000fd5b505050506040513d601f19601f82011682018060405250810190610309919061060f565b905061034a6040518060400160405280601b81526020017f636865636b537445746842616c616e63652072657475726e656420000000000081525082610489565b8091505090565b6103e78160405160240161036591906106d5565b6040516020818303038152906040527f41304fac000000000000000000000000000000000000000000000000000000007bffffffffffffffffffffffffffffffffffffffffffffffffffffffff19166020820180517bffffffffffffffffffffffffffffffffffffffffffffffffffffffff8381831617835250505050610525565b50565b610484838383604051602401610402939291906106f7565b6040516020818303038152906040527fa3f5c739000000000000000000000000000000000000000000000000000000007bffffffffffffffffffffffffffffffffffffffffffffffffffffffff19166020820180517bffffffffffffffffffffffffffffffffffffffffffffffffffffffff8381831617835250505050610525565b505050565b610521828260405160240161049f92919061073c565b6040516020818303038152906040527f9710a9d0000000000000000000000000000000000000000000000000000000007bffffffffffffffffffffffffffffffffffffffffffffffffffffffff19166020820180517bffffffffffffffffffffffffffffffffffffffffffffffffffffffff8381831617835250505050610525565b5050565b60008151905060006a636f6e736f6c652e6c6f679050602083016000808483855afa5050505050565b6000819050919050565b6105618161054e565b82525050565b600060208201905061057c6000830184610558565b92915050565b600073ffffffffffffffffffffffffffffffffffffffff82169050919050565b60006105ad82610582565b9050919050565b6105bd816105a2565b82525050565b60006020820190506105d860008301846105b4565b92915050565b600080fd5b6105ec8161054e565b81146105f757600080fd5b50565b600081519050610609816105e3565b92915050565b600060208284031215610625576106246105de565b5b6000610633848285016105fa565b91505092915050565b600081519050919050565b600082825260208201905092915050565b60005b8381101561067657808201518184015260208101905061065b565b83811115610685576000848401525b50505050565b6000601f19601f8301169050919050565b60006106a78261063c565b6106b18185610647565b93506106c1818560208601610658565b6106ca8161068b565b840191505092915050565b600060208201905081810360008301526106ef818461069c565b905092915050565b60006060820190508181036000830152610711818661069c565b90506107206020830185610558565b8181036040830152610732818461069c565b9050949350505050565b60006040820190508181036000830152610756818561069c565b90506107656020830184610558565b939250505056fea264697066735822122033b69b2e37e8ad252972ce2a6a0768ae37069096489b85779eaa816cebb0ea6264736f6c63430008090033",
  "linkReferences": {},
  "deployedLinkReferences": {}
}