{
  "_format": "hh-sol-artifact-1",
  "contractName": "CCStakingEthClient",
  "sourceName": "contracts/CCStakingEthClient.sol",
  "abi": [
    {
      "inputs": [
        {
          "internalType": "address",
          "name": "_lidoContract",
          "type": "address"
        },
        {
          "internalType": "address",
          "name": "_wethContract",
          "type": "address"
        }
      ],
      "stateMutability": "nonpayable",
      "type": "constructor"
    },
    {
      "inputs": [],
      "name": "checkStEthBalance",
      "outputs": [
        {
          "internalType": "uint256",
          "name": "",
          "type": "uint256"
        }
      ],
      "stateMutability": "view",
      "type": "function"
    },
    {
      "inputs": [],
      "name": "checkWrappedETHBalance",
      "outputs": [
        {
          "internalType": "uint256",
          "name": "",
          "type": "uint256"
        }
      ],
      "stateMutability": "view",
      "type": "function"
    },
    {
      "inputs": [],
      "name": "receiveEther",
      "outputs": [],
      "stateMutability": "payable",
      "type": "function"
    },
    {
      "inputs": [],
      "name": "stake",
      "outputs": [
        {
          "internalType": "uint256",
          "name": "",
          "type": "uint256"
        }
      ],
      "stateMutability": "payable",
      "type": "function"
    },
    {
      "inputs": [],
      "name": "unwrap",
      "outputs": [],
      "stateMutability": "nonpayable",
      "type": "function"
    },
    {
      "inputs": [],
      "name": "wrap",
      "outputs": [],
      "stateMutability": "nonpayable",
      "type": "function"
    },
    {
      "stateMutability": "payable",
      "type": "receive"
    }
  ],
  "bytecode": "0x608060405234801561001057600080fd5b50604051610d49380380610d498339818101604052810190610032919061017e565b816000806101000a81548173ffffffffffffffffffffffffffffffffffffffff021916908373ffffffffffffffffffffffffffffffffffffffff16021790555060008054906101000a900473ffffffffffffffffffffffffffffffffffffffff16600160006101000a81548173ffffffffffffffffffffffffffffffffffffffff021916908373ffffffffffffffffffffffffffffffffffffffff16021790555080600260006101000a81548173ffffffffffffffffffffffffffffffffffffffff021916908373ffffffffffffffffffffffffffffffffffffffff16021790555050506101be565b600080fd5b600073ffffffffffffffffffffffffffffffffffffffff82169050919050565b600061014b82610120565b9050919050565b61015b81610140565b811461016657600080fd5b50565b60008151905061017881610152565b92915050565b600080604083850312156101955761019461011b565b5b60006101a385828601610169565b92505060206101b485828601610169565b9150509250929050565b610b7c806101cd6000396000f3fe6080604052600436106100595760003560e01c80633a4b66f114610065578063566b436b14610083578063a3912ec8146100ae578063d46eb119146100b8578063e1a1b55d146100cf578063fd02ffb7146100fa57610060565b3661006057005b600080fd5b61006d610111565b60405161007a9190610941565b60405180910390f35b34801561008f57600080fd5b506100986102f5565b6040516100a59190610941565b60405180910390f35b6100b66103eb565b005b3480156100c457600080fd5b506100cd6103ed565b005b3480156100db57600080fd5b506100e46104b7565b6040516100f19190610941565b60405180910390f35b34801561010657600080fd5b5061010f6105ad565b005b60006101516040518060400160405280601681526020017f7374616b652066756e6374696f6e2063616c6c65642e0000000000000000000081525061072b565b6000600160009054906101000a900473ffffffffffffffffffffffffffffffffffffffff1673ffffffffffffffffffffffffffffffffffffffff1663a1903eab3460006040518363ffffffff1660e01b81526004016101b0919061099d565b6020604051808303818588803b1580156101c957600080fd5b505af11580156101dd573d6000803e3d6000fd5b50505050506040513d601f19601f8201168201806040525081019061020291906109e9565b90506102796040518060400160405280600781526020017f5374616b65642000000000000000000000000000000000000000000000000000815250346040518060400160405280600481526020017f20455448000000000000000000000000000000000000000000000000000000008152506107c4565b6102ee6040518060400160405280600981526020017f5265636569766564200000000000000000000000000000000000000000000000815250826040518060400160405280600681526020017f20737445544800000000000000000000000000000000000000000000000000008152506107c4565b8091505090565b600080600160009054906101000a900473ffffffffffffffffffffffffffffffffffffffff1673ffffffffffffffffffffffffffffffffffffffff166370a08231306040518263ffffffff1660e01b8152600401610353919061099d565b60206040518083038186803b15801561036b57600080fd5b505afa15801561037f573d6000803e3d6000fd5b505050506040513d601f19601f820116820180604052508101906103a391906109e9565b90506103e46040518060400160405280601b81526020017f636865636b537445746842616c616e63652072657475726e656420000000000081525082610863565b8091505090565b565b60004790506104316040518060400160405280601581526020017f777261702063616c6c65642c20616d6f756e743a20000000000000000000000081525082610863565b600260009054906101000a900473ffffffffffffffffffffffffffffffffffffffff1673ffffffffffffffffffffffffffffffffffffffff1663d0e30db0826040518263ffffffff1660e01b81526004016000604051808303818588803b15801561049b57600080fd5b505af11580156104af573d6000803e3d6000fd5b505050505050565b600080600260009054906101000a900473ffffffffffffffffffffffffffffffffffffffff1673ffffffffffffffffffffffffffffffffffffffff166370a08231306040518263ffffffff1660e01b8152600401610515919061099d565b60206040518083038186803b15801561052d57600080fd5b505afa158015610541573d6000803e3d6000fd5b505050506040513d601f19601f8201168201806040525081019061056591906109e9565b90506105a66040518060400160405280602081526020017f636865636b5772617070656445544842616c616e63652072657475726e65642081525082610863565b8091505090565b6000600260009054906101000a900473ffffffffffffffffffffffffffffffffffffffff1673ffffffffffffffffffffffffffffffffffffffff166370a08231306040518263ffffffff1660e01b815260040161060a919061099d565b60206040518083038186803b15801561062257600080fd5b505afa158015610636573d6000803e3d6000fd5b505050506040513d601f19601f8201168201806040525081019061065a91906109e9565b905061069b6040518060400160405280601781526020017f756e777261702063616c6c65642c20616d6f756e743a2000000000000000000081525082610863565b600260009054906101000a900473ffffffffffffffffffffffffffffffffffffffff1673ffffffffffffffffffffffffffffffffffffffff16632e1a7d4d826040518263ffffffff1660e01b81526004016106f69190610941565b600060405180830381600087803b15801561071057600080fd5b505af1158015610724573d6000803e3d6000fd5b5050505050565b6107c18160405160240161073f9190610aaf565b6040516020818303038152906040527f41304fac000000000000000000000000000000000000000000000000000000007bffffffffffffffffffffffffffffffffffffffffffffffffffffffff19166020820180517bffffffffffffffffffffffffffffffffffffffffffffffffffffffff83818316178352505050506108ff565b50565b61085e8383836040516024016107dc93929190610ad1565b6040516020818303038152906040527fa3f5c739000000000000000000000000000000000000000000000000000000007bffffffffffffffffffffffffffffffffffffffffffffffffffffffff19166020820180517bffffffffffffffffffffffffffffffffffffffffffffffffffffffff83818316178352505050506108ff565b505050565b6108fb8282604051602401610879929190610b16565b6040516020818303038152906040527f9710a9d0000000000000000000000000000000000000000000000000000000007bffffffffffffffffffffffffffffffffffffffffffffffffffffffff19166020820180517bffffffffffffffffffffffffffffffffffffffffffffffffffffffff83818316178352505050506108ff565b5050565b60008151905060006a636f6e736f6c652e6c6f679050602083016000808483855afa5050505050565b6000819050919050565b61093b81610928565b82525050565b60006020820190506109566000830184610932565b92915050565b600073ffffffffffffffffffffffffffffffffffffffff82169050919050565b60006109878261095c565b9050919050565b6109978161097c565b82525050565b60006020820190506109b2600083018461098e565b92915050565b600080fd5b6109c681610928565b81146109d157600080fd5b50565b6000815190506109e3816109bd565b92915050565b6000602082840312156109ff576109fe6109b8565b5b6000610a0d848285016109d4565b91505092915050565b600081519050919050565b600082825260208201905092915050565b60005b83811015610a50578082015181840152602081019050610a35565b83811115610a5f576000848401525b50505050565b6000601f19601f8301169050919050565b6000610a8182610a16565b610a8b8185610a21565b9350610a9b818560208601610a32565b610aa481610a65565b840191505092915050565b60006020820190508181036000830152610ac98184610a76565b905092915050565b60006060820190508181036000830152610aeb8186610a76565b9050610afa6020830185610932565b8181036040830152610b0c8184610a76565b9050949350505050565b60006040820190508181036000830152610b308185610a76565b9050610b3f6020830184610932565b939250505056fea264697066735822122042fe32f0cbc68a75eda765a89166fda06233defe689d36b73c6f04564aa80df264736f6c63430008090033",
  "linkReferences": {},
  "deployedLinkReferences": {}
}