{
  "_format": "hh-sol-artifact-1",
  "contractName": "CCStakingEthClient",
  "sourceName": "contracts/CCStakingEthClient.sol",
  "abi": [
    {
      "inputs": [
        {
          "internalType": "address",
          "name": "_lidoContract",
          "type": "address"
        },
        {
          "internalType": "address",
          "name": "_wethContract",
          "type": "address"
        }
      ],
      "stateMutability": "nonpayable",
      "type": "constructor"
    },
    {
      "inputs": [],
      "name": "checkStEthBalance",
      "outputs": [
        {
          "internalType": "uint256",
          "name": "",
          "type": "uint256"
        }
      ],
      "stateMutability": "view",
      "type": "function"
    },
    {
      "inputs": [],
      "name": "checkWrappedETHBalance",
      "outputs": [
        {
          "internalType": "uint256",
          "name": "",
          "type": "uint256"
        }
      ],
      "stateMutability": "view",
      "type": "function"
    },
    {
      "inputs": [],
      "name": "receiveEther",
      "outputs": [],
      "stateMutability": "payable",
      "type": "function"
    },
    {
      "inputs": [
        {
          "internalType": "uint256",
          "name": "_amount",
          "type": "uint256"
        }
      ],
      "name": "stake",
      "outputs": [
        {
          "internalType": "uint256",
          "name": "",
          "type": "uint256"
        }
      ],
      "stateMutability": "payable",
      "type": "function"
    },
    {
      "inputs": [
        {
          "internalType": "uint256",
          "name": "_amount",
          "type": "uint256"
        }
      ],
      "name": "transferAndStakeWrappedEth",
      "outputs": [
        {
          "internalType": "uint256",
          "name": "",
          "type": "uint256"
        }
      ],
      "stateMutability": "nonpayable",
      "type": "function"
    },
    {
      "inputs": [
        {
          "internalType": "uint256",
          "name": "_amount",
          "type": "uint256"
        }
      ],
      "name": "unwrap",
      "outputs": [],
      "stateMutability": "nonpayable",
      "type": "function"
    },
    {
      "inputs": [
        {
          "internalType": "uint256",
          "name": "_amount",
          "type": "uint256"
        }
      ],
      "name": "wrap",
      "outputs": [],
      "stateMutability": "nonpayable",
      "type": "function"
    },
    {
      "stateMutability": "payable",
      "type": "receive"
    }
  ],
  "bytecode": "0x608060405234801561001057600080fd5b50604051610a56380380610a568339818101604052810190610032919061017e565b816000806101000a81548173ffffffffffffffffffffffffffffffffffffffff021916908373ffffffffffffffffffffffffffffffffffffffff16021790555060008054906101000a900473ffffffffffffffffffffffffffffffffffffffff16600160006101000a81548173ffffffffffffffffffffffffffffffffffffffff021916908373ffffffffffffffffffffffffffffffffffffffff16021790555080600260006101000a81548173ffffffffffffffffffffffffffffffffffffffff021916908373ffffffffffffffffffffffffffffffffffffffff16021790555050506101be565b600080fd5b600073ffffffffffffffffffffffffffffffffffffffff82169050919050565b600061014b82610120565b9050919050565b61015b81610140565b811461016657600080fd5b50565b60008151905061017881610152565b92915050565b600080604083850312156101955761019461011b565b5b60006101a385828601610169565b92505060206101b485828601610169565b9150509250929050565b610889806101cd6000396000f3fe6080604052600436106100745760003560e01c8063a694fc3a1161004e578063a694fc3a146100f2578063de0e9a3e14610122578063e1a1b55d1461014b578063ea598cb0146101765761007b565b8063566b436b146100805780635f92c3bf146100ab578063a3912ec8146100e85761007b565b3661007b57005b600080fd5b34801561008c57600080fd5b5061009561019f565b6040516100a291906106a0565b60405180910390f35b3480156100b757600080fd5b506100d260048036038101906100cd91906106ec565b610256565b6040516100df91906106a0565b60405180910390f35b6100f0610329565b005b61010c600480360381019061010791906106ec565b61032b565b60405161011991906106a0565b60405180910390f35b34801561012e57600080fd5b50610149600480360381019061014491906106ec565b6103f6565b005b34801561015757600080fd5b5061016061053d565b60405161016d91906106a0565b60405180910390f35b34801561018257600080fd5b5061019d600480360381019061019891906106ec565b6105f4565b005b600080600160009054906101000a900473ffffffffffffffffffffffffffffffffffffffff1673ffffffffffffffffffffffffffffffffffffffff166370a08231306040518263ffffffff1660e01b81526004016101fd919061075a565b60206040518083038186803b15801561021557600080fd5b505afa158015610229573d6000803e3d6000fd5b505050506040513d601f19601f8201168201806040525081019061024d919061078a565b90508091505090565b6000600260009054906101000a900473ffffffffffffffffffffffffffffffffffffffff1673ffffffffffffffffffffffffffffffffffffffff166323b872dd3330856040518463ffffffff1660e01b81526004016102b7939291906107b7565b602060405180830381600087803b1580156102d157600080fd5b505af11580156102e5573d6000803e3d6000fd5b505050506040513d601f19601f820116820180604052508101906103099190610826565b50610313826103f6565b600061031e8361032b565b905080915050919050565b565b60004782111561033a57600080fd5b6000600160009054906101000a900473ffffffffffffffffffffffffffffffffffffffff1673ffffffffffffffffffffffffffffffffffffffff1663a1903eab8460006040518363ffffffff1660e01b8152600401610399919061075a565b6020604051808303818588803b1580156103b257600080fd5b505af11580156103c6573d6000803e3d6000fd5b50505050506040513d601f19601f820116820180604052508101906103eb919061078a565b905080915050919050565b600260009054906101000a900473ffffffffffffffffffffffffffffffffffffffff1673ffffffffffffffffffffffffffffffffffffffff166370a08231306040518263ffffffff1660e01b8152600401610451919061075a565b60206040518083038186803b15801561046957600080fd5b505afa15801561047d573d6000803e3d6000fd5b505050506040513d601f19601f820116820180604052508101906104a1919061078a565b8111156104ad57600080fd5b600260009054906101000a900473ffffffffffffffffffffffffffffffffffffffff1673ffffffffffffffffffffffffffffffffffffffff16632e1a7d4d826040518263ffffffff1660e01b815260040161050891906106a0565b600060405180830381600087803b15801561052257600080fd5b505af1158015610536573d6000803e3d6000fd5b5050505050565b600080600260009054906101000a900473ffffffffffffffffffffffffffffffffffffffff1673ffffffffffffffffffffffffffffffffffffffff166370a08231306040518263ffffffff1660e01b815260040161059b919061075a565b60206040518083038186803b1580156105b357600080fd5b505afa1580156105c7573d6000803e3d6000fd5b505050506040513d601f19601f820116820180604052508101906105eb919061078a565b90508091505090565b4781111561060157600080fd5b600260009054906101000a900473ffffffffffffffffffffffffffffffffffffffff1673ffffffffffffffffffffffffffffffffffffffff1663d0e30db0826040518263ffffffff1660e01b81526004016000604051808303818588803b15801561066b57600080fd5b505af115801561067f573d6000803e3d6000fd5b505050505050565b6000819050919050565b61069a81610687565b82525050565b60006020820190506106b56000830184610691565b92915050565b600080fd5b6106c981610687565b81146106d457600080fd5b50565b6000813590506106e6816106c0565b92915050565b600060208284031215610702576107016106bb565b5b6000610710848285016106d7565b91505092915050565b600073ffffffffffffffffffffffffffffffffffffffff82169050919050565b600061074482610719565b9050919050565b61075481610739565b82525050565b600060208201905061076f600083018461074b565b92915050565b600081519050610784816106c0565b92915050565b6000602082840312156107a05761079f6106bb565b5b60006107ae84828501610775565b91505092915050565b60006060820190506107cc600083018661074b565b6107d9602083018561074b565b6107e66040830184610691565b949350505050565b60008115159050919050565b610803816107ee565b811461080e57600080fd5b50565b600081519050610820816107fa565b92915050565b60006020828403121561083c5761083b6106bb565b5b600061084a84828501610811565b9150509291505056fea264697066735822122012df7ecf9745c0d9e1669e57069d545c32689c1673fc279ec14a2180def3376264736f6c63430008090033",
  "linkReferences": {},
  "deployedLinkReferences": {}
}