{
  "_format": "hh-sol-artifact-1",
  "contractName": "CCStakingEthClient",
  "sourceName": "contracts/CCStakingEthClient.sol",
  "abi": [
    {
      "inputs": [
        {
          "internalType": "address",
          "name": "_lidoContract",
          "type": "address"
        },
        {
          "internalType": "address",
          "name": "_wethContract",
          "type": "address"
        },
        {
          "internalType": "address",
          "name": "_stEthContract",
          "type": "address"
        }
      ],
      "stateMutability": "nonpayable",
      "type": "constructor"
    },
    {
      "anonymous": false,
      "inputs": [
        {
          "indexed": true,
          "internalType": "address",
          "name": "previousOwner",
          "type": "address"
        },
        {
          "indexed": true,
          "internalType": "address",
          "name": "newOwner",
          "type": "address"
        }
      ],
      "name": "OwnershipTransferred",
      "type": "event"
    },
    {
      "anonymous": false,
      "inputs": [
        {
          "indexed": false,
          "internalType": "uint256",
          "name": "amount",
          "type": "uint256"
        }
      ],
      "name": "Staked",
      "type": "event"
    },
    {
      "anonymous": false,
      "inputs": [
        {
          "indexed": false,
          "internalType": "uint256",
          "name": "amount",
          "type": "uint256"
        }
      ],
      "name": "Unwrapped",
      "type": "event"
    },
    {
      "anonymous": false,
      "inputs": [
        {
          "indexed": false,
          "internalType": "uint256",
          "name": "amount",
          "type": "uint256"
        }
      ],
      "name": "Withdrawn",
      "type": "event"
    },
    {
      "inputs": [],
      "name": "checkStEthBalance",
      "outputs": [
        {
          "internalType": "uint256",
          "name": "",
          "type": "uint256"
        }
      ],
      "stateMutability": "view",
      "type": "function"
    },
    {
      "inputs": [],
      "name": "checkWrappedETHBalance",
      "outputs": [
        {
          "internalType": "uint256",
          "name": "",
          "type": "uint256"
        }
      ],
      "stateMutability": "view",
      "type": "function"
    },
    {
      "inputs": [],
      "name": "owner",
      "outputs": [
        {
          "internalType": "address",
          "name": "",
          "type": "address"
        }
      ],
      "stateMutability": "view",
      "type": "function"
    },
    {
      "inputs": [],
      "name": "receiveEther",
      "outputs": [],
      "stateMutability": "payable",
      "type": "function"
    },
    {
      "inputs": [],
      "name": "renounceOwnership",
      "outputs": [],
      "stateMutability": "nonpayable",
      "type": "function"
    },
    {
      "inputs": [
        {
          "internalType": "uint256",
          "name": "_amount",
          "type": "uint256"
        }
      ],
      "name": "stake",
      "outputs": [
        {
          "internalType": "uint256",
          "name": "",
          "type": "uint256"
        }
      ],
      "stateMutability": "payable",
      "type": "function"
    },
    {
      "inputs": [
        {
          "internalType": "uint256",
          "name": "_amount",
          "type": "uint256"
        }
      ],
      "name": "transferAndStakeWrappedEth",
      "outputs": [
        {
          "internalType": "uint256",
          "name": "",
          "type": "uint256"
        }
      ],
      "stateMutability": "nonpayable",
      "type": "function"
    },
    {
      "inputs": [
        {
          "internalType": "address",
          "name": "newOwner",
          "type": "address"
        }
      ],
      "name": "transferOwnership",
      "outputs": [],
      "stateMutability": "nonpayable",
      "type": "function"
    },
    {
      "inputs": [
        {
          "internalType": "uint256",
          "name": "_amount",
          "type": "uint256"
        }
      ],
      "name": "unwrap",
      "outputs": [],
      "stateMutability": "nonpayable",
      "type": "function"
    },
    {
      "inputs": [
        {
          "internalType": "uint256",
          "name": "_amount",
          "type": "uint256"
        },
        {
          "internalType": "address",
          "name": "_recipient",
          "type": "address"
        }
      ],
      "name": "withDrawStEth",
      "outputs": [],
      "stateMutability": "nonpayable",
      "type": "function"
    },
    {
      "inputs": [
        {
          "internalType": "uint256",
          "name": "_amount",
          "type": "uint256"
        }
      ],
      "name": "wrap",
      "outputs": [],
      "stateMutability": "nonpayable",
      "type": "function"
    },
    {
      "stateMutability": "payable",
      "type": "receive"
    }
  ],
  "bytecode": "0x60806040523480156200001157600080fd5b506040516200128c3803806200128c8339818101604052810190620000379190620002bc565b620000576200004b6200018660201b60201c565b6200018e60201b60201c565b82600160006101000a81548173ffffffffffffffffffffffffffffffffffffffff021916908373ffffffffffffffffffffffffffffffffffffffff160217905550600160009054906101000a900473ffffffffffffffffffffffffffffffffffffffff16600260006101000a81548173ffffffffffffffffffffffffffffffffffffffff021916908373ffffffffffffffffffffffffffffffffffffffff16021790555081600360006101000a81548173ffffffffffffffffffffffffffffffffffffffff021916908373ffffffffffffffffffffffffffffffffffffffff16021790555080600460006101000a81548173ffffffffffffffffffffffffffffffffffffffff021916908373ffffffffffffffffffffffffffffffffffffffff16021790555050505062000318565b600033905090565b60008060009054906101000a900473ffffffffffffffffffffffffffffffffffffffff169050816000806101000a81548173ffffffffffffffffffffffffffffffffffffffff021916908373ffffffffffffffffffffffffffffffffffffffff1602179055508173ffffffffffffffffffffffffffffffffffffffff168173ffffffffffffffffffffffffffffffffffffffff167f8be0079c531659141344cd1fd0a4f28419497f9722a3daafe3b4186f6b6457e060405160405180910390a35050565b600080fd5b600073ffffffffffffffffffffffffffffffffffffffff82169050919050565b6000620002848262000257565b9050919050565b620002968162000277565b8114620002a257600080fd5b50565b600081519050620002b6816200028b565b92915050565b600080600060608486031215620002d857620002d762000252565b5b6000620002e886828701620002a5565b9350506020620002fb86828701620002a5565b92505060406200030e86828701620002a5565b9150509250925092565b610f6480620003286000396000f3fe6080604052600436106100a05760003560e01c8063a3912ec811610064578063a3912ec81461017f578063a694fc3a14610189578063de0e9a3e146101b9578063e1a1b55d146101e2578063ea598cb01461020d578063f2fde38b14610236576100a7565b806310d3b427146100ac578063566b436b146100d55780635f92c3bf14610100578063715018a61461013d5780638da5cb5b14610154576100a7565b366100a757005b600080fd5b3480156100b857600080fd5b506100d360048036038101906100ce9190610c2a565b61025f565b005b3480156100e157600080fd5b506100ea6103c6565b6040516100f79190610c79565b60405180910390f35b34801561010c57600080fd5b5061012760048036038101906101229190610c94565b61047d565b6040516101349190610c79565b60405180910390f35b34801561014957600080fd5b50610152610550565b005b34801561016057600080fd5b506101696105d8565b6040516101769190610cd0565b60405180910390f35b610187610601565b005b6101a3600480360381019061019e9190610c94565b610603565b6040516101b09190610c79565b60405180910390f35b3480156101c557600080fd5b506101e060048036038101906101db9190610c94565b610705565b005b3480156101ee57600080fd5b506101f7610883565b6040516102049190610c79565b60405180910390f35b34801561021957600080fd5b50610234600480360381019061022f9190610c94565b61093a565b005b34801561024257600080fd5b5061025d60048036038101906102589190610ceb565b6109cd565b005b610267610ac5565b73ffffffffffffffffffffffffffffffffffffffff166102856105d8565b73ffffffffffffffffffffffffffffffffffffffff16146102db576040517f08c379a00000000000000000000000000000000000000000000000000000000081526004016102d290610d75565b60405180910390fd5b600460009054906101000a900473ffffffffffffffffffffffffffffffffffffffff1673ffffffffffffffffffffffffffffffffffffffff1663a9059cbb82846040518363ffffffff1660e01b8152600401610338929190610d95565b602060405180830381600087803b15801561035257600080fd5b505af1158015610366573d6000803e3d6000fd5b505050506040513d601f19601f8201168201806040525081019061038a9190610df6565b507f430648de173157e069201c943adb2d4e340e7cf5b27b1b09c9cb852f03d63b56826040516103ba9190610c79565b60405180910390a15050565b600080600260009054906101000a900473ffffffffffffffffffffffffffffffffffffffff1673ffffffffffffffffffffffffffffffffffffffff166370a08231306040518263ffffffff1660e01b81526004016104249190610cd0565b60206040518083038186803b15801561043c57600080fd5b505afa158015610450573d6000803e3d6000fd5b505050506040513d601f19601f820116820180604052508101906104749190610e38565b90508091505090565b6000600360009054906101000a900473ffffffffffffffffffffffffffffffffffffffff1673ffffffffffffffffffffffffffffffffffffffff166323b872dd3330856040518463ffffffff1660e01b81526004016104de93929190610e65565b602060405180830381600087803b1580156104f857600080fd5b505af115801561050c573d6000803e3d6000fd5b505050506040513d601f19601f820116820180604052508101906105309190610df6565b5061053a82610705565b600061054583610603565b905080915050919050565b610558610ac5565b73ffffffffffffffffffffffffffffffffffffffff166105766105d8565b73ffffffffffffffffffffffffffffffffffffffff16146105cc576040517f08c379a00000000000000000000000000000000000000000000000000000000081526004016105c390610d75565b60405180910390fd5b6105d66000610acd565b565b60008060009054906101000a900473ffffffffffffffffffffffffffffffffffffffff16905090565b565b60004782111561061257600080fd5b6000600260009054906101000a900473ffffffffffffffffffffffffffffffffffffffff1673ffffffffffffffffffffffffffffffffffffffff1663a1903eab8460006040518363ffffffff1660e01b81526004016106719190610cd0565b6020604051808303818588803b15801561068a57600080fd5b505af115801561069e573d6000803e3d6000fd5b50505050506040513d601f19601f820116820180604052508101906106c39190610e38565b90507feebbaa86c348cb664e392b180fd0ff2e1998af9fa833ef69a778cb0b42d3ca27836040516106f49190610c79565b60405180910390a180915050919050565b600360009054906101000a900473ffffffffffffffffffffffffffffffffffffffff1673ffffffffffffffffffffffffffffffffffffffff166370a08231306040518263ffffffff1660e01b81526004016107609190610cd0565b60206040518083038186803b15801561077857600080fd5b505afa15801561078c573d6000803e3d6000fd5b505050506040513d601f19601f820116820180604052508101906107b09190610e38565b8111156107bc57600080fd5b600360009054906101000a900473ffffffffffffffffffffffffffffffffffffffff1673ffffffffffffffffffffffffffffffffffffffff16632e1a7d4d826040518263ffffffff1660e01b81526004016108179190610c79565b600060405180830381600087803b15801561083157600080fd5b505af1158015610845573d6000803e3d6000fd5b505050507fbeaa92c6354c6dcf375d2c514352b2c11bc865784722e5dd9b267e606eb5fc5f816040516108789190610c79565b60405180910390a150565b600080600360009054906101000a900473ffffffffffffffffffffffffffffffffffffffff1673ffffffffffffffffffffffffffffffffffffffff166370a08231306040518263ffffffff1660e01b81526004016108e19190610cd0565b60206040518083038186803b1580156108f957600080fd5b505afa15801561090d573d6000803e3d6000fd5b505050506040513d601f19601f820116820180604052508101906109319190610e38565b90508091505090565b4781111561094757600080fd5b600360009054906101000a900473ffffffffffffffffffffffffffffffffffffffff1673ffffffffffffffffffffffffffffffffffffffff1663d0e30db0826040518263ffffffff1660e01b81526004016000604051808303818588803b1580156109b157600080fd5b505af11580156109c5573d6000803e3d6000fd5b505050505050565b6109d5610ac5565b73ffffffffffffffffffffffffffffffffffffffff166109f36105d8565b73ffffffffffffffffffffffffffffffffffffffff1614610a49576040517f08c379a0000000000000000000000000000000000000000000000000000000008152600401610a4090610d75565b60405180910390fd5b600073ffffffffffffffffffffffffffffffffffffffff168173ffffffffffffffffffffffffffffffffffffffff161415610ab9576040517f08c379a0000000000000000000000000000000000000000000000000000000008152600401610ab090610f0e565b60405180910390fd5b610ac281610acd565b50565b600033905090565b60008060009054906101000a900473ffffffffffffffffffffffffffffffffffffffff169050816000806101000a81548173ffffffffffffffffffffffffffffffffffffffff021916908373ffffffffffffffffffffffffffffffffffffffff1602179055508173ffffffffffffffffffffffffffffffffffffffff168173ffffffffffffffffffffffffffffffffffffffff167f8be0079c531659141344cd1fd0a4f28419497f9722a3daafe3b4186f6b6457e060405160405180910390a35050565b600080fd5b6000819050919050565b610ba981610b96565b8114610bb457600080fd5b50565b600081359050610bc681610ba0565b92915050565b600073ffffffffffffffffffffffffffffffffffffffff82169050919050565b6000610bf782610bcc565b9050919050565b610c0781610bec565b8114610c1257600080fd5b50565b600081359050610c2481610bfe565b92915050565b60008060408385031215610c4157610c40610b91565b5b6000610c4f85828601610bb7565b9250506020610c6085828601610c15565b9150509250929050565b610c7381610b96565b82525050565b6000602082019050610c8e6000830184610c6a565b92915050565b600060208284031215610caa57610ca9610b91565b5b6000610cb884828501610bb7565b91505092915050565b610cca81610bec565b82525050565b6000602082019050610ce56000830184610cc1565b92915050565b600060208284031215610d0157610d00610b91565b5b6000610d0f84828501610c15565b91505092915050565b600082825260208201905092915050565b7f4f776e61626c653a2063616c6c6572206973206e6f7420746865206f776e6572600082015250565b6000610d5f602083610d18565b9150610d6a82610d29565b602082019050919050565b60006020820190508181036000830152610d8e81610d52565b9050919050565b6000604082019050610daa6000830185610cc1565b610db76020830184610c6a565b9392505050565b60008115159050919050565b610dd381610dbe565b8114610dde57600080fd5b50565b600081519050610df081610dca565b92915050565b600060208284031215610e0c57610e0b610b91565b5b6000610e1a84828501610de1565b91505092915050565b600081519050610e3281610ba0565b92915050565b600060208284031215610e4e57610e4d610b91565b5b6000610e5c84828501610e23565b91505092915050565b6000606082019050610e7a6000830186610cc1565b610e876020830185610cc1565b610e946040830184610c6a565b949350505050565b7f4f776e61626c653a206e6577206f776e657220697320746865207a65726f206160008201527f6464726573730000000000000000000000000000000000000000000000000000602082015250565b6000610ef8602683610d18565b9150610f0382610e9c565b604082019050919050565b60006020820190508181036000830152610f2781610eeb565b905091905056fea2646970667358221220d7ea1c4fb424f427e6bf56e0686162b6463fb0d607f6eaeac50c816de7d18d1f64736f6c63430008090033",
  "linkReferences": {},
  "deployedLinkReferences": {}
}