{
  "_format": "hh-sol-artifact-1",
  "contractName": "CCStakingEthClient",
  "sourceName": "contracts/CCStakingEthClient.sol",
  "abi": [
    {
      "inputs": [
        {
          "internalType": "address",
          "name": "_lidoContract",
          "type": "address"
        },
        {
          "internalType": "address",
          "name": "_wethContract",
          "type": "address"
        },
        {
          "internalType": "address",
          "name": "_stEthContract",
          "type": "address"
        }
      ],
      "stateMutability": "nonpayable",
      "type": "constructor"
    },
    {
      "anonymous": false,
      "inputs": [
        {
          "indexed": false,
          "internalType": "uint256",
          "name": "amount",
          "type": "uint256"
        }
      ],
      "name": "Staked",
      "type": "event"
    },
    {
      "anonymous": false,
      "inputs": [
        {
          "indexed": false,
          "internalType": "uint256",
          "name": "amount",
          "type": "uint256"
        }
      ],
      "name": "Unwrapped",
      "type": "event"
    },
    {
      "anonymous": false,
      "inputs": [
        {
          "indexed": false,
          "internalType": "uint256",
          "name": "amount",
          "type": "uint256"
        }
      ],
      "name": "Withdrawn",
      "type": "event"
    },
    {
      "inputs": [],
      "name": "checkStEthBalance",
      "outputs": [
        {
          "internalType": "uint256",
          "name": "",
          "type": "uint256"
        }
      ],
      "stateMutability": "view",
      "type": "function"
    },
    {
      "inputs": [],
      "name": "checkWrappedETHBalance",
      "outputs": [
        {
          "internalType": "uint256",
          "name": "",
          "type": "uint256"
        }
      ],
      "stateMutability": "view",
      "type": "function"
    },
    {
      "inputs": [],
      "name": "receiveEther",
      "outputs": [],
      "stateMutability": "payable",
      "type": "function"
    },
    {
      "inputs": [
        {
          "internalType": "uint256",
          "name": "_amount",
          "type": "uint256"
        }
      ],
      "name": "stake",
      "outputs": [
        {
          "internalType": "uint256",
          "name": "",
          "type": "uint256"
        }
      ],
      "stateMutability": "payable",
      "type": "function"
    },
    {
      "inputs": [
        {
          "internalType": "uint256",
          "name": "_amount",
          "type": "uint256"
        }
      ],
      "name": "transferAndStakeWrappedEth",
      "outputs": [
        {
          "internalType": "uint256",
          "name": "",
          "type": "uint256"
        }
      ],
      "stateMutability": "nonpayable",
      "type": "function"
    },
    {
      "inputs": [
        {
          "internalType": "uint256",
          "name": "_amount",
          "type": "uint256"
        }
      ],
      "name": "unwrap",
      "outputs": [],
      "stateMutability": "nonpayable",
      "type": "function"
    },
    {
      "inputs": [
        {
          "internalType": "uint256",
          "name": "_amount",
          "type": "uint256"
        },
        {
          "internalType": "address",
          "name": "_recipient",
          "type": "address"
        }
      ],
      "name": "withDrawStEth",
      "outputs": [],
      "stateMutability": "nonpayable",
      "type": "function"
    },
    {
      "inputs": [
        {
          "internalType": "uint256",
          "name": "_amount",
          "type": "uint256"
        }
      ],
      "name": "wrap",
      "outputs": [],
      "stateMutability": "nonpayable",
      "type": "function"
    },
    {
      "stateMutability": "payable",
      "type": "receive"
    }
  ],
  "bytecode": "0x608060405234801561001057600080fd5b50604051610ccd380380610ccd833981810160405281019061003291906101c0565b826000806101000a81548173ffffffffffffffffffffffffffffffffffffffff021916908373ffffffffffffffffffffffffffffffffffffffff16021790555060008054906101000a900473ffffffffffffffffffffffffffffffffffffffff16600160006101000a81548173ffffffffffffffffffffffffffffffffffffffff021916908373ffffffffffffffffffffffffffffffffffffffff16021790555081600260006101000a81548173ffffffffffffffffffffffffffffffffffffffff021916908373ffffffffffffffffffffffffffffffffffffffff16021790555080600360006101000a81548173ffffffffffffffffffffffffffffffffffffffff021916908373ffffffffffffffffffffffffffffffffffffffff160217905550505050610213565b600080fd5b600073ffffffffffffffffffffffffffffffffffffffff82169050919050565b600061018d82610162565b9050919050565b61019d81610182565b81146101a857600080fd5b50565b6000815190506101ba81610194565b92915050565b6000806000606084860312156101d9576101d861015d565b5b60006101e7868287016101ab565b93505060206101f8868287016101ab565b9250506040610209868287016101ab565b9150509250925092565b610aab806102226000396000f3fe60806040526004361061007f5760003560e01c8063a694fc3a1161004e578063a694fc3a14610126578063de0e9a3e14610156578063e1a1b55d1461017f578063ea598cb0146101aa57610086565b806310d3b4271461008b578063566b436b146100b45780635f92c3bf146100df578063a3912ec81461011c57610086565b3661008657005b600080fd5b34801561009757600080fd5b506100b260048036038101906100ad91906108ad565b6101d3565b005b3480156100c057600080fd5b506100c96102be565b6040516100d691906108fc565b60405180910390f35b3480156100eb57600080fd5b5061010660048036038101906101019190610917565b610375565b60405161011391906108fc565b60405180910390f35b610124610448565b005b610140600480360381019061013b9190610917565b61044a565b60405161014d91906108fc565b60405180910390f35b34801561016257600080fd5b5061017d60048036038101906101789190610917565b61054c565b005b34801561018b57600080fd5b506101946106ca565b6040516101a191906108fc565b60405180910390f35b3480156101b657600080fd5b506101d160048036038101906101cc9190610917565b610781565b005b600360009054906101000a900473ffffffffffffffffffffffffffffffffffffffff1673ffffffffffffffffffffffffffffffffffffffff1663a9059cbb82846040518363ffffffff1660e01b8152600401610230929190610953565b602060405180830381600087803b15801561024a57600080fd5b505af115801561025e573d6000803e3d6000fd5b505050506040513d601f19601f8201168201806040525081019061028291906109b4565b507f430648de173157e069201c943adb2d4e340e7cf5b27b1b09c9cb852f03d63b56826040516102b291906108fc565b60405180910390a15050565b600080600160009054906101000a900473ffffffffffffffffffffffffffffffffffffffff1673ffffffffffffffffffffffffffffffffffffffff166370a08231306040518263ffffffff1660e01b815260040161031c91906109e1565b60206040518083038186803b15801561033457600080fd5b505afa158015610348573d6000803e3d6000fd5b505050506040513d601f19601f8201168201806040525081019061036c9190610a11565b90508091505090565b6000600260009054906101000a900473ffffffffffffffffffffffffffffffffffffffff1673ffffffffffffffffffffffffffffffffffffffff166323b872dd3330856040518463ffffffff1660e01b81526004016103d693929190610a3e565b602060405180830381600087803b1580156103f057600080fd5b505af1158015610404573d6000803e3d6000fd5b505050506040513d601f19601f8201168201806040525081019061042891906109b4565b506104328261054c565b600061043d8361044a565b905080915050919050565b565b60004782111561045957600080fd5b6000600160009054906101000a900473ffffffffffffffffffffffffffffffffffffffff1673ffffffffffffffffffffffffffffffffffffffff1663a1903eab8460006040518363ffffffff1660e01b81526004016104b891906109e1565b6020604051808303818588803b1580156104d157600080fd5b505af11580156104e5573d6000803e3d6000fd5b50505050506040513d601f19601f8201168201806040525081019061050a9190610a11565b90507feebbaa86c348cb664e392b180fd0ff2e1998af9fa833ef69a778cb0b42d3ca278360405161053b91906108fc565b60405180910390a180915050919050565b600260009054906101000a900473ffffffffffffffffffffffffffffffffffffffff1673ffffffffffffffffffffffffffffffffffffffff166370a08231306040518263ffffffff1660e01b81526004016105a791906109e1565b60206040518083038186803b1580156105bf57600080fd5b505afa1580156105d3573d6000803e3d6000fd5b505050506040513d601f19601f820116820180604052508101906105f79190610a11565b81111561060357600080fd5b600260009054906101000a900473ffffffffffffffffffffffffffffffffffffffff1673ffffffffffffffffffffffffffffffffffffffff16632e1a7d4d826040518263ffffffff1660e01b815260040161065e91906108fc565b600060405180830381600087803b15801561067857600080fd5b505af115801561068c573d6000803e3d6000fd5b505050507fbeaa92c6354c6dcf375d2c514352b2c11bc865784722e5dd9b267e606eb5fc5f816040516106bf91906108fc565b60405180910390a150565b600080600260009054906101000a900473ffffffffffffffffffffffffffffffffffffffff1673ffffffffffffffffffffffffffffffffffffffff166370a08231306040518263ffffffff1660e01b815260040161072891906109e1565b60206040518083038186803b15801561074057600080fd5b505afa158015610754573d6000803e3d6000fd5b505050506040513d601f19601f820116820180604052508101906107789190610a11565b90508091505090565b4781111561078e57600080fd5b600260009054906101000a900473ffffffffffffffffffffffffffffffffffffffff1673ffffffffffffffffffffffffffffffffffffffff1663d0e30db0826040518263ffffffff1660e01b81526004016000604051808303818588803b1580156107f857600080fd5b505af115801561080c573d6000803e3d6000fd5b505050505050565b600080fd5b6000819050919050565b61082c81610819565b811461083757600080fd5b50565b60008135905061084981610823565b92915050565b600073ffffffffffffffffffffffffffffffffffffffff82169050919050565b600061087a8261084f565b9050919050565b61088a8161086f565b811461089557600080fd5b50565b6000813590506108a781610881565b92915050565b600080604083850312156108c4576108c3610814565b5b60006108d28582860161083a565b92505060206108e385828601610898565b9150509250929050565b6108f681610819565b82525050565b600060208201905061091160008301846108ed565b92915050565b60006020828403121561092d5761092c610814565b5b600061093b8482850161083a565b91505092915050565b61094d8161086f565b82525050565b60006040820190506109686000830185610944565b61097560208301846108ed565b9392505050565b60008115159050919050565b6109918161097c565b811461099c57600080fd5b50565b6000815190506109ae81610988565b92915050565b6000602082840312156109ca576109c9610814565b5b60006109d88482850161099f565b91505092915050565b60006020820190506109f66000830184610944565b92915050565b600081519050610a0b81610823565b92915050565b600060208284031215610a2757610a26610814565b5b6000610a35848285016109fc565b91505092915050565b6000606082019050610a536000830186610944565b610a606020830185610944565b610a6d60408301846108ed565b94935050505056fea2646970667358221220988407d6549d40bace576348eee0e8620a89d04503b620136928027403ca1c0d64736f6c63430008090033",
  "linkReferences": {},
  "deployedLinkReferences": {}
}