{
  "_format": "hh-sol-artifact-1",
  "contractName": "CCStakingEthClient",
  "sourceName": "contracts/CCStakingEthClient.sol",
  "abi": [
    {
      "inputs": [
        {
          "internalType": "address",
          "name": "_lidoContract",
          "type": "address"
        },
        {
          "internalType": "address",
          "name": "_wethContract",
          "type": "address"
        }
      ],
      "stateMutability": "nonpayable",
      "type": "constructor"
    },
    {
      "inputs": [],
      "name": "checkStEthBalance",
      "outputs": [
        {
          "internalType": "uint256",
          "name": "",
          "type": "uint256"
        }
      ],
      "stateMutability": "view",
      "type": "function"
    },
    {
      "inputs": [],
      "name": "checkWrappedETHBalance",
      "outputs": [
        {
          "internalType": "uint256",
          "name": "",
          "type": "uint256"
        }
      ],
      "stateMutability": "view",
      "type": "function"
    },
    {
      "inputs": [],
      "name": "receiveEther",
      "outputs": [],
      "stateMutability": "payable",
      "type": "function"
    },
    {
      "inputs": [
        {
          "internalType": "uint256",
          "name": "_amount",
          "type": "uint256"
        }
      ],
      "name": "stake",
      "outputs": [
        {
          "internalType": "uint256",
          "name": "",
          "type": "uint256"
        }
      ],
      "stateMutability": "payable",
      "type": "function"
    },
    {
      "inputs": [
        {
          "internalType": "uint256",
          "name": "_amount",
          "type": "uint256"
        }
      ],
      "name": "transferAndStakeWrappedEth",
      "outputs": [
        {
          "internalType": "uint256",
          "name": "",
          "type": "uint256"
        }
      ],
      "stateMutability": "nonpayable",
      "type": "function"
    },
    {
      "inputs": [
        {
          "internalType": "uint256",
          "name": "_amount",
          "type": "uint256"
        }
      ],
      "name": "unwrap",
      "outputs": [],
      "stateMutability": "nonpayable",
      "type": "function"
    },
    {
      "inputs": [
        {
          "internalType": "uint256",
          "name": "_amount",
          "type": "uint256"
        }
      ],
      "name": "wrap",
      "outputs": [],
      "stateMutability": "nonpayable",
      "type": "function"
    },
    {
      "stateMutability": "payable",
      "type": "receive"
    }
  ],
  "bytecode": "0x60806040523480156200001157600080fd5b5060405162000fbc38038062000fbc83398181016040528101906200003791906200018b565b816000806101000a81548173ffffffffffffffffffffffffffffffffffffffff021916908373ffffffffffffffffffffffffffffffffffffffff16021790555060008054906101000a900473ffffffffffffffffffffffffffffffffffffffff16600160006101000a81548173ffffffffffffffffffffffffffffffffffffffff021916908373ffffffffffffffffffffffffffffffffffffffff16021790555080600260006101000a81548173ffffffffffffffffffffffffffffffffffffffff021916908373ffffffffffffffffffffffffffffffffffffffff1602179055505050620001d2565b600080fd5b600073ffffffffffffffffffffffffffffffffffffffff82169050919050565b6000620001538262000126565b9050919050565b620001658162000146565b81146200017157600080fd5b50565b60008151905062000185816200015a565b92915050565b60008060408385031215620001a557620001a462000121565b5b6000620001b58582860162000174565b9250506020620001c88582860162000174565b9150509250929050565b610dda80620001e26000396000f3fe6080604052600436106100745760003560e01c8063a694fc3a1161004e578063a694fc3a146100f2578063de0e9a3e14610122578063e1a1b55d1461014b578063ea598cb0146101765761007b565b8063566b436b146100805780635f92c3bf146100ab578063a3912ec8146100e85761007b565b3661007b57005b600080fd5b34801561008c57600080fd5b5061009561019f565b6040516100a29190610ac1565b60405180910390f35b3480156100b757600080fd5b506100d260048036038101906100cd9190610b0d565b610295565b6040516100df9190610ac1565b60405180910390f35b6100f0610368565b005b61010c60048036038101906101079190610b0d565b61036a565b6040516101199190610ac1565b60405180910390f35b34801561012e57600080fd5b5061014960048036038101906101449190610b0d565b61055d565b005b34801561015757600080fd5b506101606106e3565b60405161016d9190610ac1565b60405180910390f35b34801561018257600080fd5b5061019d60048036038101906101989190610b0d565b6107d9565b005b600080600160009054906101000a900473ffffffffffffffffffffffffffffffffffffffff1673ffffffffffffffffffffffffffffffffffffffff166370a08231306040518263ffffffff1660e01b81526004016101fd9190610b7b565b60206040518083038186803b15801561021557600080fd5b505afa158015610229573d6000803e3d6000fd5b505050506040513d601f19601f8201168201806040525081019061024d9190610bab565b905061028e6040518060400160405280601b81526020017f636865636b537445746842616c616e63652072657475726e6564200000000000815250826108ab565b8091505090565b6000600260009054906101000a900473ffffffffffffffffffffffffffffffffffffffff1673ffffffffffffffffffffffffffffffffffffffff166323b872dd3330856040518463ffffffff1660e01b81526004016102f693929190610bd8565b602060405180830381600087803b15801561031057600080fd5b505af1158015610324573d6000803e3d6000fd5b505050506040513d601f19601f820116820180604052508101906103489190610c47565b506103528261055d565b600061035d8361036a565b905080915050919050565b565b60006103aa6040518060400160405280601681526020017f7374616b652066756e6374696f6e2063616c6c65642e00000000000000000000815250610947565b478211156103b757600080fd5b6000600160009054906101000a900473ffffffffffffffffffffffffffffffffffffffff1673ffffffffffffffffffffffffffffffffffffffff1663a1903eab8460006040518363ffffffff1660e01b81526004016104169190610b7b565b6020604051808303818588803b15801561042f57600080fd5b505af1158015610443573d6000803e3d6000fd5b50505050506040513d601f19601f820116820180604052508101906104689190610bab565b90506104df6040518060400160405280600781526020017f5374616b65642000000000000000000000000000000000000000000000000000815250846040518060400160405280600481526020017f20455448000000000000000000000000000000000000000000000000000000008152506109e0565b6105546040518060400160405280600981526020017f5265636569766564200000000000000000000000000000000000000000000000815250826040518060400160405280600681526020017f20737445544800000000000000000000000000000000000000000000000000008152506109e0565b80915050919050565b600260009054906101000a900473ffffffffffffffffffffffffffffffffffffffff1673ffffffffffffffffffffffffffffffffffffffff166370a08231306040518263ffffffff1660e01b81526004016105b89190610b7b565b60206040518083038186803b1580156105d057600080fd5b505afa1580156105e4573d6000803e3d6000fd5b505050506040513d601f19601f820116820180604052508101906106089190610bab565b81111561061457600080fd5b6106536040518060400160405280601781526020017f756e777261702063616c6c65642c20616d6f756e743a20000000000000000000815250826108ab565b600260009054906101000a900473ffffffffffffffffffffffffffffffffffffffff1673ffffffffffffffffffffffffffffffffffffffff16632e1a7d4d826040518263ffffffff1660e01b81526004016106ae9190610ac1565b600060405180830381600087803b1580156106c857600080fd5b505af11580156106dc573d6000803e3d6000fd5b5050505050565b600080600260009054906101000a900473ffffffffffffffffffffffffffffffffffffffff1673ffffffffffffffffffffffffffffffffffffffff166370a08231306040518263ffffffff1660e01b81526004016107419190610b7b565b60206040518083038186803b15801561075957600080fd5b505afa15801561076d573d6000803e3d6000fd5b505050506040513d601f19601f820116820180604052508101906107919190610bab565b90506107d26040518060400160405280602081526020017f636865636b5772617070656445544842616c616e63652072657475726e656420815250826108ab565b8091505090565b478111156107e657600080fd5b6108256040518060400160405280601581526020017f777261702063616c6c65642c20616d6f756e743a200000000000000000000000815250826108ab565b600260009054906101000a900473ffffffffffffffffffffffffffffffffffffffff1673ffffffffffffffffffffffffffffffffffffffff1663d0e30db0826040518263ffffffff1660e01b81526004016000604051808303818588803b15801561088f57600080fd5b505af11580156108a3573d6000803e3d6000fd5b505050505050565b61094382826040516024016108c1929190610d0d565b6040516020818303038152906040527f9710a9d0000000000000000000000000000000000000000000000000000000007bffffffffffffffffffffffffffffffffffffffffffffffffffffffff19166020820180517bffffffffffffffffffffffffffffffffffffffffffffffffffffffff8381831617835250505050610a7f565b5050565b6109dd8160405160240161095b9190610d3d565b6040516020818303038152906040527f41304fac000000000000000000000000000000000000000000000000000000007bffffffffffffffffffffffffffffffffffffffffffffffffffffffff19166020820180517bffffffffffffffffffffffffffffffffffffffffffffffffffffffff8381831617835250505050610a7f565b50565b610a7a8383836040516024016109f893929190610d5f565b6040516020818303038152906040527fa3f5c739000000000000000000000000000000000000000000000000000000007bffffffffffffffffffffffffffffffffffffffffffffffffffffffff19166020820180517bffffffffffffffffffffffffffffffffffffffffffffffffffffffff8381831617835250505050610a7f565b505050565b60008151905060006a636f6e736f6c652e6c6f679050602083016000808483855afa5050505050565b6000819050919050565b610abb81610aa8565b82525050565b6000602082019050610ad66000830184610ab2565b92915050565b600080fd5b610aea81610aa8565b8114610af557600080fd5b50565b600081359050610b0781610ae1565b92915050565b600060208284031215610b2357610b22610adc565b5b6000610b3184828501610af8565b91505092915050565b600073ffffffffffffffffffffffffffffffffffffffff82169050919050565b6000610b6582610b3a565b9050919050565b610b7581610b5a565b82525050565b6000602082019050610b906000830184610b6c565b92915050565b600081519050610ba581610ae1565b92915050565b600060208284031215610bc157610bc0610adc565b5b6000610bcf84828501610b96565b91505092915050565b6000606082019050610bed6000830186610b6c565b610bfa6020830185610b6c565b610c076040830184610ab2565b949350505050565b60008115159050919050565b610c2481610c0f565b8114610c2f57600080fd5b50565b600081519050610c4181610c1b565b92915050565b600060208284031215610c5d57610c5c610adc565b5b6000610c6b84828501610c32565b91505092915050565b600081519050919050565b600082825260208201905092915050565b60005b83811015610cae578082015181840152602081019050610c93565b83811115610cbd576000848401525b50505050565b6000601f19601f8301169050919050565b6000610cdf82610c74565b610ce98185610c7f565b9350610cf9818560208601610c90565b610d0281610cc3565b840191505092915050565b60006040820190508181036000830152610d278185610cd4565b9050610d366020830184610ab2565b9392505050565b60006020820190508181036000830152610d578184610cd4565b905092915050565b60006060820190508181036000830152610d798186610cd4565b9050610d886020830185610ab2565b8181036040830152610d9a8184610cd4565b905094935050505056fea26469706673582212204b434e04c4cc29d10f6de6d653c6fad981f35bd7b357a13de7d4ee00af98ca3164736f6c63430008090033",
  "linkReferences": {},
  "deployedLinkReferences": {}
}