{
  "_format": "hh-sol-artifact-1",
  "contractName": "Lido",
  "sourceName": "contracts/CCStakingEthClient.sol",
  "abi": [
    {
      "inputs": [
        {
          "internalType": "address",
          "name": "_account",
          "type": "address"
        }
      ],
      "name": "balanceOf",
      "outputs": [
        {
          "internalType": "uint256",
          "name": "",
          "type": "uint256"
        }
      ],
      "stateMutability": "view",
      "type": "function"
    },
    {
      "inputs": [
        {
          "internalType": "address",
          "name": "_referral",
          "type": "address"
        }
      ],
      "name": "submit",
      "outputs": [
        {
          "internalType": "uint256",
          "name": "",
          "type": "uint256"
        }
      ],
      "stateMutability": "payable",
      "type": "function"
    }
  ],
  "bytecode": "0x608060405234801561001057600080fd5b506101a3806100206000396000f3fe6080604052600436106100295760003560e01c806370a082311461002e578063a1903eab1461006b575b600080fd5b34801561003a57600080fd5b506100556004803603810190610050919061010c565b61009b565b6040516100629190610152565b60405180910390f35b6100856004803603810190610080919061010c565b6100a2565b6040516100929190610152565b60405180910390f35b6000919050565b6000919050565b600080fd5b600073ffffffffffffffffffffffffffffffffffffffff82169050919050565b60006100d9826100ae565b9050919050565b6100e9816100ce565b81146100f457600080fd5b50565b600081359050610106816100e0565b92915050565b600060208284031215610122576101216100a9565b5b6000610130848285016100f7565b91505092915050565b6000819050919050565b61014c81610139565b82525050565b60006020820190506101676000830184610143565b9291505056fea2646970667358221220b2e5d2b5748cb6a29d6cf5dc36ec190fdd8dcbad2f6d92bec3afd0992506c58e64736f6c63430008090033",
  "linkReferences": {},
  "deployedLinkReferences": {}
}