{
  "_format": "hh-sol-artifact-1",
  "contractName": "StETH",
  "sourceName": "contracts/CCStakingEthClient.sol",
  "abi": [
    {
      "inputs": [],
      "name": "getTotalShares",
      "outputs": [
        {
          "internalType": "uint256",
          "name": "",
          "type": "uint256"
        }
      ],
      "stateMutability": "view",
      "type": "function"
    },
    {
      "inputs": [
        {
          "internalType": "address",
          "name": "_account",
          "type": "address"
        }
      ],
      "name": "sharesOf",
      "outputs": [
        {
          "internalType": "uint256",
          "name": "",
          "type": "uint256"
        }
      ],
      "stateMutability": "view",
      "type": "function"
    },
    {
      "inputs": [
        {
          "internalType": "address",
          "name": "_recipient",
          "type": "address"
        },
        {
          "internalType": "uint256",
          "name": "_amount",
          "type": "uint256"
        }
      ],
      "name": "transfer",
      "outputs": [
        {
          "internalType": "bool",
          "name": "",
          "type": "bool"
        }
      ],
      "stateMutability": "nonpayable",
      "type": "function"
    }
  ],
  "bytecode": "0x608060405234801561001057600080fd5b50610274806100206000396000f3fe608060405234801561001057600080fd5b50600436106100415760003560e01c8063a9059cbb14610046578063d5002f2e14610076578063f5eb42dc14610094575b600080fd5b610060600480360381019061005b9190610171565b6100c4565b60405161006d91906101cc565b60405180910390f35b61007e6100cc565b60405161008b91906101f6565b60405180910390f35b6100ae60048036038101906100a99190610211565b6100d1565b6040516100bb91906101f6565b60405180910390f35b600092915050565b600090565b6000919050565b600080fd5b600073ffffffffffffffffffffffffffffffffffffffff82169050919050565b6000610108826100dd565b9050919050565b610118816100fd565b811461012357600080fd5b50565b6000813590506101358161010f565b92915050565b6000819050919050565b61014e8161013b565b811461015957600080fd5b50565b60008135905061016b81610145565b92915050565b60008060408385031215610188576101876100d8565b5b600061019685828601610126565b92505060206101a78582860161015c565b9150509250929050565b60008115159050919050565b6101c6816101b1565b82525050565b60006020820190506101e160008301846101bd565b92915050565b6101f08161013b565b82525050565b600060208201905061020b60008301846101e7565b92915050565b600060208284031215610227576102266100d8565b5b600061023584828501610126565b9150509291505056fea264697066735822122039622668351f30f1f2e4f3ede51f820b6af1ccdfb7ca0ad19cd3044f0de1942764736f6c63430008090033",
  "linkReferences": {},
  "deployedLinkReferences": {}
}