{
  "_format": "hh-sol-artifact-1",
  "contractName": "WETH9",
  "sourceName": "contracts/CCStakingEthClient.sol",
  "abi": [
    {
      "inputs": [
        {
          "internalType": "address",
          "name": "",
          "type": "address"
        },
        {
          "internalType": "address",
          "name": "",
          "type": "address"
        }
      ],
      "name": "allowance",
      "outputs": [
        {
          "internalType": "uint256",
          "name": "",
          "type": "uint256"
        }
      ],
      "stateMutability": "view",
      "type": "function"
    },
    {
      "inputs": [
        {
          "internalType": "address",
          "name": "guy",
          "type": "address"
        },
        {
          "internalType": "uint256",
          "name": "wad",
          "type": "uint256"
        }
      ],
      "name": "approve",
      "outputs": [
        {
          "internalType": "bool",
          "name": "",
          "type": "bool"
        }
      ],
      "stateMutability": "nonpayable",
      "type": "function"
    },
    {
      "inputs": [
        {
          "internalType": "address",
          "name": "",
          "type": "address"
        }
      ],
      "name": "balanceOf",
      "outputs": [
        {
          "internalType": "uint256",
          "name": "",
          "type": "uint256"
        }
      ],
      "stateMutability": "view",
      "type": "function"
    },
    {
      "inputs": [],
      "name": "deposit",
      "outputs": [],
      "stateMutability": "payable",
      "type": "function"
    },
    {
      "inputs": [
        {
          "internalType": "address",
          "name": "src",
          "type": "address"
        },
        {
          "internalType": "address",
          "name": "dst",
          "type": "address"
        },
        {
          "internalType": "uint256",
          "name": "wad",
          "type": "uint256"
        }
      ],
      "name": "transferFrom",
      "outputs": [
        {
          "internalType": "bool",
          "name": "",
          "type": "bool"
        }
      ],
      "stateMutability": "nonpayable",
      "type": "function"
    },
    {
      "inputs": [
        {
          "internalType": "uint256",
          "name": "wad",
          "type": "uint256"
        }
      ],
      "name": "withdraw",
      "outputs": [],
      "stateMutability": "nonpayable",
      "type": "function"
    }
  ],
  "bytecode": "0x608060405234801561001057600080fd5b50610430806100206000396000f3fe6080604052600436106100555760003560e01c8063095ea7b31461005a57806323b872dd146100975780632e1a7d4d146100d457806370a08231146100fd578063d0e30db01461013a578063dd62ed3e14610144575b600080fd5b34801561006657600080fd5b50610081600480360381019061007c919061026d565b610181565b60405161008e91906102c8565b60405180910390f35b3480156100a357600080fd5b506100be60048036038101906100b991906102e3565b610189565b6040516100cb91906102c8565b60405180910390f35b3480156100e057600080fd5b506100fb60048036038101906100f69190610336565b610192565b005b34801561010957600080fd5b50610124600480360381019061011f9190610363565b610195565b604051610131919061039f565b60405180910390f35b6101426101ad565b005b34801561015057600080fd5b5061016b600480360381019061016691906103ba565b6101af565b604051610178919061039f565b60405180910390f35b600092915050565b60009392505050565b50565b60006020528060005260406000206000915090505481565b565b6001602052816000526040600020602052806000526040600020600091509150505481565b600080fd5b600073ffffffffffffffffffffffffffffffffffffffff82169050919050565b6000610204826101d9565b9050919050565b610214816101f9565b811461021f57600080fd5b50565b6000813590506102318161020b565b92915050565b6000819050919050565b61024a81610237565b811461025557600080fd5b50565b60008135905061026781610241565b92915050565b60008060408385031215610284576102836101d4565b5b600061029285828601610222565b92505060206102a385828601610258565b9150509250929050565b60008115159050919050565b6102c2816102ad565b82525050565b60006020820190506102dd60008301846102b9565b92915050565b6000806000606084860312156102fc576102fb6101d4565b5b600061030a86828701610222565b935050602061031b86828701610222565b925050604061032c86828701610258565b9150509250925092565b60006020828403121561034c5761034b6101d4565b5b600061035a84828501610258565b91505092915050565b600060208284031215610379576103786101d4565b5b600061038784828501610222565b91505092915050565b61039981610237565b82525050565b60006020820190506103b46000830184610390565b92915050565b600080604083850312156103d1576103d06101d4565b5b60006103df85828601610222565b92505060206103f085828601610222565b915050925092905056fea2646970667358221220819ba1f3b2c52e02a749d2acc3e9eeab191c08443d5bad08967971d5303597d164736f6c63430008090033",
  "linkReferences": {},
  "deployedLinkReferences": {}
}