{
  "_format": "hh-sol-artifact-1",
  "contractName": "WETH9",
  "sourceName": "contracts/CCStakingEthClient.sol",
  "abi": [
    {
      "inputs": [
        {
          "internalType": "address",
          "name": "",
          "type": "address"
        }
      ],
      "name": "balanceOf",
      "outputs": [
        {
          "internalType": "uint256",
          "name": "",
          "type": "uint256"
        }
      ],
      "stateMutability": "view",
      "type": "function"
    },
    {
      "inputs": [],
      "name": "deposit",
      "outputs": [],
      "stateMutability": "payable",
      "type": "function"
    },
    {
      "inputs": [
        {
          "internalType": "uint256",
          "name": "wad",
          "type": "uint256"
        }
      ],
      "name": "withdraw",
      "outputs": [],
      "stateMutability": "nonpayable",
      "type": "function"
    }
  ],
  "bytecode": "0x608060405234801561001057600080fd5b50610219806100206000396000f3fe6080604052600436106100345760003560e01c80632e1a7d4d1461003957806370a0823114610062578063d0e30db01461009f575b600080fd5b34801561004557600080fd5b50610060600480360381019061005b9190610101565b6100a9565b005b34801561006e57600080fd5b506100896004803603810190610084919061018c565b6100ac565b60405161009691906101c8565b60405180910390f35b6100a76100c4565b005b50565b60006020528060005260406000206000915090505481565b565b600080fd5b6000819050919050565b6100de816100cb565b81146100e957600080fd5b50565b6000813590506100fb816100d5565b92915050565b600060208284031215610117576101166100c6565b5b6000610125848285016100ec565b91505092915050565b600073ffffffffffffffffffffffffffffffffffffffff82169050919050565b60006101598261012e565b9050919050565b6101698161014e565b811461017457600080fd5b50565b60008135905061018681610160565b92915050565b6000602082840312156101a2576101a16100c6565b5b60006101b084828501610177565b91505092915050565b6101c2816100cb565b82525050565b60006020820190506101dd60008301846101b9565b9291505056fea2646970667358221220c4bbd617803d0354ffd66343884861995acba72921e162663de177e53102f6d664736f6c63430008090033",
  "linkReferences": {},
  "deployedLinkReferences": {}
}